:100000000C9474000C9495000C9495000C9495003D
:100010000C9495000C9495000C9495000C9495000C
:100020000C9495000C9495000C9495000C949500FC
:100030000C9495000C9495000C9495000C949500EC
:100040000C9495000C9495000C9495000C949500DC
:100050000C9495000C9495000C9495000C949500CC
:100060000C9495000C9495000C9495000C949500BC
:100070000C9495000C9495000C9495000C949500AC
:100080000C9495000C9495000C9495000C9495009C
:100090000C9495000C9495000C9495000C9495008C
:1000A0000C9495000C9495000C9495000C9495007C
:1000B0000C9495000C9495000C9495000C9495006C
:1000C0000C9495000C9495000C9495000C9495005C
:1000D0000C9495000C9495000C9495000C9495004C
:1000E0000C9495000C94970011241FBECFEFD1E221
:1000F000DEBFCDBF00E00CBF13E0A0E0B2E0EEE752
:10010000F6E100E00BBF02C007900D92A032B107EC
:10011000D9F723E0A0E2B3E001C01D92A632B207F6
:10012000E1F70E9449040C943D0B0C9400008A30C6
:1001300049F09091C00095FFFCCF8093C60080E00D
:1001400090E008959091C00095FFFCCF9DE09093C2
:10015000C600EFCF9093C5008093C40086E08093E3
:10016000C20088E98093C10008959091C00095FF76
:10017000FCCF8093C60008958091C00087FFFCCF1C
:100180008091C60008958091C000881F8827881F2D
:100190000895FC012081222351F031969091C000F6
:1001A00095FFFCCF2093C60021912111F7CF089530
:1001B00080E092E090932303809322031092C50085
:1001C00082E38093C40086E08093C20088E9809334
:1001D000C100089594EA9093BC009091BC0097FFF1
:1001E000FCCF8091B900089584E98093BC00089504
:1001F00094EA9093BC009091BC0097FFFCCF909143
:10020000B900880F8093BB0084E88093BC00809184
:10021000BC0087FFFCCF8091B900887F883109F549
:100220004423B1F0FB019B01240F311D94E881911F
:100230008093BB009093BC008091BC0087FFFCCFF3
:100240008091B900887F883249F42E173F0779F7EB
:1002500084E98093BC0080E090E008958EEF9FEFEA
:1002600008958FEF9FEF089594EA9093BC009091CA
:10027000BC0097FFFCCF9091B900982F990F9093F5
:10028000BB0094E89093BC009091BC0097FFFCCF1A
:100290009091B900987F983189F46093BB0094E8FD
:1002A0009093BC009091BC0097FFFCCF9091B90057
:1002B000987F983219F494E99093BC0094EA909353
:1002C000BC009091BC0097FFFCCF9091B900880FC3
:1002D00081608093BB0084E88093BC008091BC0067
:1002E00087FFFCCF8091B900887F803479F48091BA
:1002F000BC0080688093BC008091BC0087FFFCCF6D
:1003000084E98093BC008091BB0008958091B9007E
:10031000887F1F928F9385E692E09F938F930E9430
:100320003F080F900F900F900F9080E008951F935B
:10033000CF93DF9300D000D0CDB7DEB7E9EBF0E08C
:100340008081816080838081826080838CE0809363
:10035000B8008BE68D8311E01E8342E0BE016B5F27
:100360007F4F88E60E94F8009F938F9383E892E086
:100370009F938F930E943F086BE688E60E943401AA
:100380001F928F9388E992E09F938F930E943F087A
:1003900087E38B831C8342E0BE016D5F7F4F88E65D
:1003A0000E94F8009F938F938CEA92E09F938F9323
:1003B0000E943F0884E2898380E28A8342E0BE0192
:1003C0006F5F7F4F88E60E94F8009F938F938DECBC
:1003D00092E09F938F930E943F082FEF80E792E077
:1003E000215080409040E1F700C000000FB6F89423
:1003F000DEBF0FBECDBF26960FB6F894DEBF0FBE90
:10040000CDBFDF91CF911F910895CF93DF931F92BE
:100410001F92CDB7DEB78BE1898380E18A8342E00A
:10042000BE016F5F7F4F88E60E94F8009F938F9315
:100430008EED92E09F938F930E943F082FEF80E70D
:1004400092E0215080409040E1F700C000000F9002
:100450000F900F900F900F900F90DF91CF91089514
:10046000CF93DF931F921F92CDB7DEB78CE18983C4
:1004700080E18A8342E0BE016F5F7F4F88E60E9481
:10048000F8009F938F9384EF92E09F938F930E9445
:100490003F082FEF80E792E0215080409040E1F745
:1004A00000C000000F900F900F900F900F900F90D2
:1004B000DF91CF910895CF93DF9300D01F92CDB7F6
:1004C000DEB787E38B8382E28C8342E0BE016D5FFF
:1004D0007F4F88E60E94F8009F938F938BE093E014
:1004E0009F938F930E943F088FE39CE90197F1F758
:1004F00000C000008AE0898382E08A8342E0BE0176
:100500006F5F7F4F8CE00E94F8008FE39CE90197BA
:10051000F1F700C000000F900F900F900F900F9018
:100520000F900F900F90DF91CF910895CF92DF92AF
:10053000EF92FF920F931F93CF93DF93EC0164E44C
:1005400088E60E943401E82E63E488E60E943401C4
:10055000C82E66E488E60E943401082F65E488E628
:100560000E943401D82E68E488E60E943401182FD6
:1005700067E488E60E943401F82E6E2D70E07C2935
:10058000072E000C880B990B0E9446072FE632E1DC
:1005900043E052E40E949C0620E030E048EC52E444
:1005A0000E94D207688379838A839B83602F70E0DF
:1005B0007D29072E000C880B990B0E9446072FE619
:1005C00032E143E052E40E949C0620E030E048EC37
:1005D00052E40E94D2076C837D838E839F83612FB8
:1005E00070E07F29072E000C880B990B0E944607AC
:1005F0002FE632E143E052E40E949C0620E030E026
:1006000048EC52E40E94D207688779878A879B87E3
:10061000DF91CF911F910F91FF90EF90DF90CF90DE
:100620000895CF92DF92EF92FF920F931F93CF9393
:10063000DF93EC016CE388E60E943401E82E6BE363
:1006400088E60E943401C82E6EE388E60E943401D9
:10065000082F6DE388E60E943401D82E60E488E616
:100660000E943401182F6FE388E60E943401F82EAF
:100670006E2D70E07C29072E000C880B990B0E94D0
:10068000460720E030E040E859E30E94D20720E02E
:1006900030E048EC52E40E94D207688379838A8371
:1006A0009B83602F70E07D29072E000C880B990B2F
:1006B0000E94460720E030E040E859E30E94D2075C
:1006C00020E030E048EC52E40E94D2076C837D8346
:1006D0008E839F83612F70E07F29072E000C880B8B
:1006E000990B0E94460720E030E040E859E30E9461
:1006F000D20720E030E048EC52E40E94D20768873D
:1007000079878A879B87DF91CF911F910F91FF9007
:10071000EF90DF90CF900895AF92BF92CF92DF928B
:10072000EF92FF920F931F93CF93DF931F921F922D
:10073000CDB7DEB78C018AE0898381E08A8342E00D
:10074000BE016F5F7F4F8CE00E94F80062E08CE09A
:100750000E94340180FFFACF63E08CE00E943401F4
:10076000B82E64E08CE00E943401A82E65E08CE095
:100770000E943401E82E66E08CE00E943401C82E0D
:1007800067E08CE00E943401F82E68E08CE00E9463
:100790003401D82E6B2D70E07A29072E000C880BBF
:1007A000990B0E9446072FE832EC45ED50E40E9479
:1007B0009C0620E030E048EC52E40E94D207F801A9
:1007C00060837183828393836E2D70E07C29072E72
:1007D000000C880B990B0E9446072FE832EC45ED80
:1007E00050E40E949C0620E030E048EC52E40E9475
:1007F000D207F80164837583868397836F2D70E039
:100800007D29072E000C880B990B0E9446072FE8C4
:1008100032EC45ED50E40E949C0620E030E048ECCC
:1008200052E40E94D207F80160877187828793871C
:100830000F900F90DF91CF911F910F91FF90EF904C
:10084000DF90CF90BF90AF900895CF9362E488E699
:100850000E943401C82F61E488E60E9434016C2FA5
:1008600070E0782B072E000C880B990B0E9446072E
:100870002CE53FEE46EA53E40E949C0620E030E07F
:1008800048EA51E40E9430060E940E07CB01CF9146
:100890000895CF93DF93CDB7DEB7EC970FB6F894FA
:1008A000DEBF0FBECDBF0E94D8008EE092E00E9456
:1008B00053080E9497010E945B020E9405020E9459
:1008C00030028CE192E00E94530881E4282E82E0FD
:1008D000382E6AE388E60E943401813009F0BAC1FB
:1008E00005E010E0412C512C32015301420173010B
:1008F00062014DA25EA26FA278A649A65AA66BA677
:100900007CA64DA65EA66FA678AA49AA5AAA6BAA8B
:100910007CAA4DAA5EAA6FAA78AE49AE5AAE6BAE5B
:100920007CAECE0149960E941103CE010D960E9425
:100930009602CE0101960E948C03298D3A8D4B8D33
:100940005C8DC301B2010E9430062B013C012D8D4C
:100950003E8D4F8D58A1C501B4010E9430064B0158
:100960005C0129A13AA14BA15CA1C701B6010E947B
:1009700030066B017C012D853E854F8558896DA120
:100980007EA18FA198A50E9430066DA37EA38FA3A0
:1009900098A729893A894B895C8969A57AA58BA58D
:1009A0009CA50E94300669A77AA78BA79CA72D89D2
:1009B0003E894F89588D6DA57EA58FA598A90E9467
:1009C00030066DA77EA78FA798AB29813A814B810E
:1009D0005C8169A97AA98BA99CA90E94300669ABA0
:1009E0007AAB8BAB9CAB2D813E814F8158856DA935
:1009F0007EA98FA998AD0E9430066DAB7EAB8FAB00
:100A000098AF29853A854B855C8569AD7AAD8BAD0C
:100A10009CAD0E94300669AF7AAF8BAF9CAF8FE977
:100A20009FE00197F1F700C000000150110909F0A3
:100A300078CF20E030E040EA50E4C301B2010E94E8
:100A40009C0620E030E040EA50E40E942F062B0193
:100A50003C01698F7A8F8B8F9C8F20E030E040EAD9
:100A600050E4C501B4010E949C0620E030E0A901D9
:100A70000E9430064B015C016D8F7E8F8F8F98A393
:100A800020E030E040EA50E4C701B6010E949C0635
:100A900020E030E040E850E40E942F066B017C012A
:100AA00069A37AA38BA39CA320E030E040EA50E442
:100AB0006DA17EA18FA198A50E949C0620E030E048
:100AC00046E253E40E9430066D877E878F87988BBD
:100AD00020E030E040EA50E469A57AA58BA59CA50A
:100AE0000E949C0620E030E04FE753E40E942F066E
:100AF000698B7A8B8B8B9C8B20E030E040EA50E452
:100B00006DA57EA58FA598A90E949C0620E030E0E7
:100B100040EA51E40E9430066D8B7E8B8F8B988F5C
:100B200020E030E040EA50E469A97AA98BA99CA9A9
:100B30000E949C0620E030EC4AE555E40E94300615
:100B400069837A838B839C8320E030E040EA50E421
:100B50006DA97EA98FA998AD0E949C0620E030E483
:100B60004CE954E40E9430066D837E838F8398871E
:100B700020E030E040EA50E469AD7AAD8BAD9CAD49
:100B80000E949C0620E030E447E655E40E943006CF
:100B900069877A878B879C87C701B6010E940E07F9
:100BA0007F936F93C501B4010E940E077F936F93EB
:100BB000C301B2010E940E077F936F933F922F9261
:100BC0000E943F086D897E898F89988D0E940E074B
:100BD0007F936F9369897A898B899C890E940E071C
:100BE0007F936F936D857E858F8598890E940E0710
:100BF0007F936F938DE492E09F938F930E943F08C1
:100C000069857A858B859C850E940E077F936F93FB
:100C10006D817E818F8198850E940E077F936F93EF
:100C200069817A818B819C810E940E077F936F93EB
:100C300089E592E09F938F930E943F080FB6F89446
:100C4000DEBF0FBECDBF6AE388E60E94340181306B
:100C500009F446CE87E292E00E9453083ACE5058FB
:100C6000BB27AA270E9447060C9498070E948A0770
:100C700038F00E94910720F039F49F3F19F426F4D0
:100C80000C9487070EF4E095E7FB0C948107E92F9D
:100C90000E94A90758F3BA176207730784079507DC
:100CA00020F079F4A6F50C94CB070EF4E0950B2E0A
:100CB000BA2FA02D0B01B90190010C01CA01A001AE
:100CC0001124FF27591B99F0593F50F4503E68F109
:100CD0001A16F040A22F232F342F4427585FF3CF4A
:100CE000469537952795A795F0405395C9F77EF41B
:100CF0001F16BA0B620B730B840BBAF09150A1F064
:100D0000FF0FBB1F661F771F881FC2F70EC0BA0FE9
:100D1000621F731F841F48F4879577956795B79571
:100D2000F7959E3F08F0B0CF9395880F08F099276C
:100D3000EE0F9795879508950E94B0060C9498073A
:100D40000E94910758F00E948A0740F029F45F3F03
:100D500029F00C94810751110C94CC070C9487074F
:100D60000E94A90768F39923B1F3552391F3951BCA
:100D7000550BBB27AA2762177307840738F09F5FBC
:100D80005F4F220F331F441FAA1FA9F335D00E2E29
:100D90003AF0E0E832D091505040E695001CCAF796
:100DA0002BD0FE2F29D0660F771F881FBB1F261759
:100DB00037074807AB07B0E809F0BB0B802DBF0130
:100DC000FF2793585F4F3AF09E3F510578F00C94FF
:100DD00081070C94CC075F3FE4F3983ED4F38695EB
:100DE00077956795B795F7959F5FC9F7880F911D20
:100DF0009695879597F90895E1E0660F771F881F0C
:100E0000BB1F621773078407BA0720F0621B730BBE
:100E1000840BBA0BEE1F88F7E09508950E94150722
:100E20006894B1110C94CC0708950E94B10788F022
:100E30009F5798F0B92F9927B751B0F0E1F0660F9E
:100E4000771F881F991F1AF0BA95C9F714C0B130DF
:100E500091F00E94CB07B1E008950C94CB07672F67
:100E6000782F8827B85F39F0B93FCCF3869577950E
:100E70006795B395D9F73EF49095809570956195F7
:100E80007F4F8F4F9F4F0895E89409C097FB3EF422
:100E900090958095709561957F4F8F4F9F4F9923C7
:100EA000A9F0F92F96E9BB279395F6958795779545
:100EB0006795B795F111F8CFFAF4BB0F11F460FF05
:100EC0001BC06F5F7F4F8F4F9F4F16C0882311F05D
:100ED00096E911C0772321F09EE8872F762F05C071
:100EE000662371F096E8862F70E060E02AF09A950C
:100EF000660F771F881FDAF7880F9695879597F901
:100F0000089597F99F6780E870E060E008959FEF8B
:100F100080EC089500240A94161617061806090690
:100F2000089500240A94121613061406050608955F
:100F3000092E0394000C11F4882352F0BB0F40F4E7
:100F4000BF2B11F460FF04C06F5F7F4F8F4F9F4F27
:100F5000089557FD9058440F551F59F05F3F71F0A9
:100F60004795880F97FB991F61F09F3F79F0879510
:100F70000895121613061406551FF2CF4695F1DF99
:100F800008C0161617061806991FF1CF8695710529
:100F9000610508940895E894BB2766277727CB015D
:100FA00097F908950E94E5070C9498070E948A0714
:100FB00038F00E94910720F0952311F00C948107DE
:100FC0000C94870711240C94CC070E94A90770F396
:100FD000959FC1F3950F50E0551F629FF001729FDE
:100FE000BB27F00DB11D639FAA27F00DB11DAA1FED
:100FF000649F6627B00DA11D661F829F2227B00D3A
:10100000A11D621F739FB00DA11D621F839FA00DC4
:10101000611D221F749F3327A00D611D231F849F14
:10102000600D211D822F762F6A2F11249F5750406B
:101030009AF0F1F088234AF0EE0FFF1FBB1F661FE6
:10104000771F881F91505040A9F79E3F510580F0AF
:101050000C9481070C94CC075F3FE4F3983ED4F3E3
:10106000869577956795B795F795E7959F5FC1F753
:10107000FE2B880F911D9695879597F90895CF932C
:10108000DF93CDB7DEB7AE014A5F5F4FFA016191E2
:101090007191AF0180912203909123030E948308F4
:1010A000DF91CF9108950F931F93CF93DF93E0913A
:1010B0002203F0912303238121FF1BC08C01D0E088
:1010C000C0E0F80181918F016091220370912303A8
:1010D000DB011896ED91FC911997882331F0199551
:1010E000892B79F3DFEFCFEFECCF8AE01995892BCD
:1010F00019F08FEF9FEF02C08D2F9C2FDF91CF91C2
:101100001F910F9108952F923F924F925F926F928D
:101110007F928F929F92AF92BF92CF92DF92EF9287
:10112000FF920F931F93CF93DF93CDB7DEB72B972B
:101130000FB6F894DEBF0FBECDBF6C017B018A01F4
:10114000FC0117821682838181FFCCC1CE010196FA
:101150003C01F6019381F70193FD859193FF819105
:101160007F01882309F4BAC1853239F493FD859152
:1011700093FF81917F01853229F4B60190E00E94AE
:10118000A30AE7CF912C212C312CFFE1F315D8F0E5
:101190008B3279F038F4803279F08332A1F4232D48
:1011A00020611DC08D3261F0803369F4232D2160F0
:1011B00016C0832D8260382EE32DE4603E2E2AC0B7
:1011C000F32DF8601DC037FC2DC020ED280F2A300C
:1011D00040F08E32B9F436FC81C1232D2064322ECA
:1011E00019C036FE06C08AE0989E200D1124922E6A
:1011F00011C0EAE02E9E200D1124222EF32DF06264
:101200003F2E08C08C3621F4832D8068382E02C012
:10121000883641F4F70193FD859193FF81917F0119
:101220008111B3CF982F9F7D9554933028F40C5F94
:101230001F4F9FE399830DC0833631F0833771F0E0
:10124000833509F059C021C0F801808189830E5F80
:101250001F4F88248394912C530113C02801F2E07E
:101260004F0E511CF801A080B18036FE03C0692DDD
:1012700070E002C06FEF7FEFC5010E94980A4C0139
:101280008201F32DFF773F2E16C0280122E0420E87
:10129000511CF801A080B18036FE03C0692D70E0BA
:1012A00002C06FEF7FEFC5010E948D0A4C01F32D44
:1012B000F0683F2E820133FC1BC0822D90E088161F
:1012C0009906B0F4B60180E290E00E94A30A2A9445
:1012D000F4CFF50137FC859137FE81915F01B601AE
:1012E00090E00E94A30A21102A9421E0821A91081A
:1012F0008114910471F7E8C0843611F0893641F504
:10130000F80137FE07C060817181828193810C5F93
:101310001F4F08C060817181072E000C880B990B4C
:101320000E5F1F4FF32DFF763F2E97FF09C090955C
:101330008095709561957F4F8F4F9F4FF0683F2E3E
:101340002AE030E0A3010E94DF0A882E861845C0FB
:10135000853731F4232D2F7EB22E2AE030E025C0D0
:10136000932D997FB92E8F36C1F018F4883579F016
:10137000B5C0803719F0883721F0B0C0E92FE0619F
:10138000BE2EB4FE0DC0FB2DF460BF2E09C034FE8E
:101390000AC0292F2660B22E06C028E030E005C022
:1013A00020E130E002C020E132E0F801B7FE07C0E2
:1013B00060817181828193810C5F1F4F06C06081C3
:1013C000718180E090E00E5F1F4FA3010E94DF0A51
:1013D000882E8618FB2DFF773F2E36FE0DC0232D5D
:1013E0002E7FA22E891458F434FE0BC032FC09C0A3
:1013F000832D8E7EA82E05C0B82CA32C03C0B82C3C
:1014000001C0B92CA4FE0FC0FE01E80DF11D8081C2
:10141000803321F49A2D997EA92E09C0A2FE06C020
:10142000B394B39404C08A2D867809F0B394A3FCD6
:1014300011C0A0FE06C0B21488F4280C922C9B1890
:101440000EC0B21460F4B60180E290E00E94A30ADC
:10145000B394F7CFB21418F42B1802C0982C212C97
:10146000A4FE10C0B60180E390E00E94A30AA2FE91
:1014700017C0A1FC03C088E790E002C088E590E0B7
:10148000B6010CC08A2D867859F0A1FE02C08BE20D
:1014900001C080E2A7FC8DE2B60190E00E94A30AA1
:1014A000891438F4B60180E390E00E94A30A9A946C
:1014B000F7CF8A94F301E80DF11D8081B60190E029
:1014C0000E94A30A8110F5CF222009F442CEB60172
:1014D00080E290E00E94A30A2A94F6CFF60186816A
:1014E000978102C08FEF9FEF2B960FB6F894DEBF67
:1014F0000FBECDBFDF91CF911F910F91FF90EF9065
:10150000DF90CF90BF90AF909F908F907F906F9023
:101510005F904F903F902F900895FC01059061508F
:1015200070400110D8F7809590958E0F9F1F0895F9
:10153000FC016150704001900110D8F780959095A2
:101540008E0F9F1F08950F931F93CF93DF93FB017F
:10155000238121FD03C08FEF9FEF2CC022FF16C017
:1015600046815781248135814217530744F4A08175
:10157000B1819D012F5F3F4F318320838C93268162
:1015800037812F5F3F4F3783268314C08B01EC01D7
:10159000FB010084F185E02D1995892BE1F6D80136
:1015A00016968D919C911797019617969C938E9302
:1015B0001697CE01DF91CF911F910F910895FA01F7
:1015C000AA27283051F1203181F1E8946F936E7F82
:1015D0006E5F7F4F8F4F9F4FAF4FB1E03ED0B4E073
:1015E0003CD0670F781F891F9A1FA11D680F791FB4
:1015F0008A1F911DA11D6A0F711D811D911DA11DC5
:1016000020D009F468943F912AE0269F11243019D4
:10161000305D3193DEF6CF010895462F4770405D6F
:101620004193B3E00FD0C9F7F6CF462F4F70405D1E
:101630004A3318F0495D31FD4052419302D0A9F779
:10164000EACFB4E0A6959795879577956795BA9573
:10165000C9F700976105710508959B01AC010A2E39
:1016600006945795479537952795BA95C9F7620F10
:0E167000731F841F951FA01D0895F894FFCFCF
:10167E000000000200000000970000000000696EEC
:10168E00697A696F207365742075700046696E659E
:10169E002073657475700057414954494E47204672
:1016AE004F5220494E544552525550542E2E2E2EE6
:1016BE0000302025642025642025640A0031202571
:1016CE00642025642025640A0032202564202564C8
:1016DE002025640A004D525F534C415F41434B201D
:1016EE006572726F722120455252204E4F3A20255C
:1016FE00780A004D414E41474D454E5420575249B0
:10170E0054453A2025640A004D414E41474D454E01
:10171E005420524541443A2025780A00696E74657A
:10172E00727275707420656E61626C6520524157DD
:10173E005F5244595F454E3A2025640A005741498D
:10174E00545F464F525F45533A2025640A0047596D
:10175E00524F5F53455455502057524954453A20E5
:10176E0025640A00414343454C5F53455455502070
:10177E0057524954453A2025640A004D41475F535C
:10178E00455455502057524954453A2025640A0075
:00000001FF
